{
  "_format": "hh-sol-artifact-1",
  "contractName": "BlazePool",
  "sourceName": "contracts/BlazePool.sol",
  "abi": [
    {
      "inputs": [
        {
          "internalType": "address",
          "name": "blazeTokenAddress",
          "type": "address"
        }
      ],
      "stateMutability": "nonpayable",
      "type": "constructor"
    },
    {
      "inputs": [],
      "name": "blazeToken",
      "outputs": [
        {
          "internalType": "contract BlazeToken",
          "name": "",
          "type": "address"
        }
      ],
      "stateMutability": "view",
      "type": "function"
    },
    {
      "inputs": [],
      "name": "invest",
      "outputs": [
        {
          "internalType": "string",
          "name": "",
          "type": "string"
        }
      ],
      "stateMutability": "pure",
      "type": "function"
    }
  ],
  "bytecode": "0x608060405234801561001057600080fd5b506040516103453803806103458339818101604052810190610032919061008d565b806000806101000a81548173ffffffffffffffffffffffffffffffffffffffff021916908373ffffffffffffffffffffffffffffffffffffffff160217905550506100ff565b600081519050610087816100e8565b92915050565b60006020828403121561009f57600080fd5b60006100ad84828501610078565b91505092915050565b60006100c1826100c8565b9050919050565b600073ffffffffffffffffffffffffffffffffffffffff82169050919050565b6100f1816100b6565b81146100fc57600080fd5b50565b6102378061010e6000396000f3fe608060405234801561001057600080fd5b50600436106100365760003560e01c806338e3341f1461003b578063e8b5e51f14610059575b600080fd5b610043610077565b6040516100509190610120565b60405180910390f35b61006161009b565b60405161006e919061013b565b60405180910390f35b60008054906101000a900473ffffffffffffffffffffffffffffffffffffffff1681565b60606040518060400160405280600481526020017f5445535400000000000000000000000000000000000000000000000000000000815250905090565b6100e181610199565b82525050565b60006100f28261015d565b6100fc8185610168565b935061010c8185602086016101bd565b610115816101f0565b840191505092915050565b600060208201905061013560008301846100d8565b92915050565b6000602082019050818103600083015261015581846100e7565b905092915050565b600081519050919050565b600082825260208201905092915050565b600073ffffffffffffffffffffffffffffffffffffffff82169050919050565b60006101a4826101ab565b9050919050565b60006101b682610179565b9050919050565b60005b838110156101db5780820151818401526020810190506101c0565b838111156101ea576000848401525b50505050565b6000601f19601f830116905091905056fea264697066735822122037dd2d8a838e1480a078ae844b787c87d831ab0584fcaf446b1543fe3e071bb264736f6c63430008000033",
  "linkReferences": {},
  "deployedLinkReferences": {}
}